:020000020000FC
:0200000002C03C
:100004000CC000E20BBF04E007BB0BE108BB479A3E
:10001400789400E305BF8895FBCFBFB61FEF0CE0D3
:10002400A02E0AEF902E902E9A940000E9F7AA943D
:10003400D1F726B32B3149F0233359F02B3269F031
:100044002A3379F0293389F013C03CEF43E016D00A
:100054000FC038EF47E012D00BC03CEE43E10ED0A6
:1000640007C034EF4BE00AD003C030EF4FE006D0B6
:1000740026B32B3309F0FCCFBFBE189567EC75E0AF
:1000840032D085EF96E028D00EEFF02E01E0E02E7E
:100094000ED0A2E0F32EE42E0AD0AA95D9F76DE390
:1000A40071E021D0089508E0C02EEF2C04C008E0D0
:1000B400C02E02E0D02EE79471E06DE314D020F05E
:1000C40080EC91E009D003C08FE497E005D0CA9496
:1000D40091F7DA9441F70895082F802F8A95F1F764
:1000E4009A95D9F70895062F602F88B2B4E08B262D
:1000F40088BA000000006A95C1F77A95A9F70BE168
:0401040008BB089597
:00000001FF
